{
  "contractName": "Biography",
  "abi": [
    {
      "constant": true,
      "inputs": [],
      "name": "ownerCount",
      "outputs": [
        {
          "name": "",
          "type": "uint256"
        }
      ],
      "payable": false,
      "stateMutability": "view",
      "type": "function"
    },
    {
      "constant": true,
      "inputs": [
        {
          "name": "",
          "type": "uint256"
        }
      ],
      "name": "owner",
      "outputs": [
        {
          "name": "chassisNumber",
          "type": "string"
        },
        {
          "name": "model",
          "type": "string"
        },
        {
          "name": "numberPlate",
          "type": "string"
        },
        {
          "name": "amountBought",
          "type": "uint256"
        },
        {
          "name": "ownerAadhar",
          "type": "string"
        },
        {
          "name": "features",
          "type": "string"
        }
      ],
      "payable": false,
      "stateMutability": "view",
      "type": "function"
    },
    {
      "inputs": [],
      "payable": false,
      "stateMutability": "nonpayable",
      "type": "constructor"
    },
    {
      "constant": false,
      "inputs": [
        {
          "name": "_chassisNumber",
          "type": "string"
        },
        {
          "name": "_model",
          "type": "string"
        },
        {
          "name": "_numberPlate",
          "type": "string"
        },
        {
          "name": "amount",
          "type": "uint256"
        },
        {
          "name": "aadhar",
          "type": "string"
        },
        {
          "name": "features",
          "type": "string"
        }
      ],
      "name": "addVehicle",
      "outputs": [],
      "payable": false,
      "stateMutability": "nonpayable",
      "type": "function"
    }
  ],
  "bytecode": "0x60806040523480156200001157600080fd5b506200013d6040805190810160405280601181526020017f314847424834314a584d4e3130393138360000000000000000000000000000008152506040805190810160405280600d81526020017f546f796f74612043656c696361000000000000000000000000000000000000008152506040805190810160405280600c81526020017f4150303220415a20393939390000000000000000000000000000000000000000815250629896806040805190810160405280600c81526020017f35393136323336363735303900000000000000000000000000000000000000008152506040805190810160405280601581526020017f20414320636f6e646974696f6e20697320676f6f6400000000000000000000008152506200039b640100000000026401000000009004565b620002696040805190810160405280601181526020017f324847424834314a4154503130393138360000000000000000000000000000008152506040805190810160405280600881526020017f45636f20466f72640000000000000000000000000000000000000000000000008152506040805190810160405280600c81526020017f41503135204c5a203538363900000000000000000000000000000000000000008152506301312d006040805190810160405280600c81526020017f35333635323534383534313200000000000000000000000000000000000000008152506040805190810160405280601581526020017f20414320636f6e646974696f6e20697320676f6f6400000000000000000000008152506200039b640100000000026401000000009004565b620003956040805190810160405280601181526020017f334847424834314a57524e3130393138360000000000000000000000000000008152506040805190810160405280600e81526020017f4d6172757468692053757a756b690000000000000000000000000000000000008152506040805190810160405280600c81526020017f4150303620494f203135343800000000000000000000000000000000000000008152506301c9c3806040805190810160405280600c81526020017f35383532363335383437353800000000000000000000000000000000000000008152506040805190810160405280601581526020017f20414320636f6e646974696f6e20697320676f6f6400000000000000000000008152506200039b640100000000026401000000009004565b6200054e565b60016000815480929190600101919050555060c06040519081016040528087815260200186815260200185815260200184815260200183815260200182815250600080600154815260200190815260200160002060008201518160000190805190602001906200040d9291906200049f565b5060208201518160010190805190602001906200042c9291906200049f565b5060408201518160020190805190602001906200044b9291906200049f565b50606082015181600301556080820151816004019080519060200190620004749291906200049f565b5060a0820151816005019080519060200190620004939291906200049f565b50905050505050505050565b828054600181600116156101000203166002900490600052602060002090601f016020900481019282601f10620004e257805160ff191683800117855562000513565b8280016001018555821562000513579182015b8281111562000512578251825591602001919060010190620004f5565b5b50905062000522919062000526565b5090565b6200054b91905b80821115620005475760008160009055506001016200052d565b5090565b90565b610974806200055e6000396000f300608060405260043610610057576000357c0100000000000000000000000000000000000000000000000000000000900463ffffffff1680630db026221461005c578063926ea4b014610087578063a123c33e14610212575b600080fd5b34801561006857600080fd5b5061007161046f565b6040518082815260200191505060405180910390f35b34801561009357600080fd5b50610210600480360381019080803590602001908201803590602001908080601f0160208091040260200160405190810160405280939291908181526020018383808284378201915050505050509192919290803590602001908201803590602001908080601f0160208091040260200160405190810160405280939291908181526020018383808284378201915050505050509192919290803590602001908201803590602001908080601f016020809104026020016040519081016040528093929190818152602001838380828437820191505050505050919291929080359060200190929190803590602001908201803590602001908080601f0160208091040260200160405190810160405280939291908181526020018383808284378201915050505050509192919290803590602001908201803590602001908080601f0160208091040260200160405190810160405280939291908181526020018383808284378201915050505050509192919290505050610475565b005b34801561021e57600080fd5b5061023d6004803603810190808035906020019092919050505061056f565b60405180806020018060200180602001878152602001806020018060200186810386528c818151815260200191508051906020019080838360005b83811015610293578082015181840152602081019050610278565b50505050905090810190601f1680156102c05780820380516001836020036101000a031916815260200191505b5086810385528b818151815260200191508051906020019080838360005b838110156102f95780820151818401526020810190506102de565b50505050905090810190601f1680156103265780820380516001836020036101000a031916815260200191505b5086810384528a818151815260200191508051906020019080838360005b8381101561035f578082015181840152602081019050610344565b50505050905090810190601f16801561038c5780820380516001836020036101000a031916815260200191505b50868103835288818151815260200191508051906020019080838360005b838110156103c55780820151818401526020810190506103aa565b50505050905090810190601f1680156103f25780820380516001836020036101000a031916815260200191505b50868103825287818151815260200191508051906020019080838360005b8381101561042b578082015181840152602081019050610410565b50505050905090810190601f1680156104585780820380516001836020036101000a031916815260200191505b509b50505050505050505050505060405180910390f35b60015481565b60016000815480929190600101919050555060c06040519081016040528087815260200186815260200185815260200184815260200183815260200182815250600080600154815260200190815260200160002060008201518160000190805190602001906104e59291906108a3565b5060208201518160010190805190602001906105029291906108a3565b50604082015181600201908051906020019061051f9291906108a3565b506060820151816003015560808201518160040190805190602001906105469291906108a3565b5060a08201518160050190805190602001906105639291906108a3565b50905050505050505050565b6000602052806000526040600020600091509050806000018054600181600116156101000203166002900480601f01602080910402602001604051908101604052809291908181526020018280546001816001161561010002031660029004801561061b5780601f106105f05761010080835404028352916020019161061b565b820191906000526020600020905b8154815290600101906020018083116105fe57829003601f168201915b505050505090806001018054600181600116156101000203166002900480601f0160208091040260200160405190810160405280929190818152602001828054600181600116156101000203166002900480156106b95780601f1061068e576101008083540402835291602001916106b9565b820191906000526020600020905b81548152906001019060200180831161069c57829003601f168201915b505050505090806002018054600181600116156101000203166002900480601f0160208091040260200160405190810160405280929190818152602001828054600181600116156101000203166002900480156107575780601f1061072c57610100808354040283529160200191610757565b820191906000526020600020905b81548152906001019060200180831161073a57829003601f168201915b505050505090806003015490806004018054600181600116156101000203166002900480601f0160208091040260200160405190810160405280929190818152602001828054600181600116156101000203166002900480156107fb5780601f106107d0576101008083540402835291602001916107fb565b820191906000526020600020905b8154815290600101906020018083116107de57829003601f168201915b505050505090806005018054600181600116156101000203166002900480601f0160208091040260200160405190810160405280929190818152602001828054600181600116156101000203166002900480156108995780601f1061086e57610100808354040283529160200191610899565b820191906000526020600020905b81548152906001019060200180831161087c57829003601f168201915b5050505050905086565b828054600181600116156101000203166002900490600052602060002090601f016020900481019282601f106108e457805160ff1916838001178555610912565b82800160010185558215610912579182015b828111156109115782518255916020019190600101906108f6565b5b50905061091f9190610923565b5090565b61094591905b80821115610941576000816000905550600101610929565b5090565b905600a165627a7a723058208e4ebf8d640c506a3a514a7597634a4cf7aefc7d096d136133ad9ca2ac2a88ea0029",
  "source": "pragma solidity 0.4.24;\r\n\r\ncontract Biography{\r\n\r\n    struct Vehicle{\r\n        string chassisNumber;\r\n        string model;\r\n        string numberPlate;\r\n        uint256 amountBought;\r\n        string ownerAadhar;\r\n        string features;\r\n        \r\n    }\r\n    \r\n    mapping(uint256 => Vehicle) public owner;\r\n    uint256 public ownerCount;\r\n\r\n    constructor() public {\r\n        addVehicle(\"1HGBH41JXMN109186\", \"Toyota Celica\", \"AP02 AZ 9999\", 10000000,  \"591623667509\", \" AC condition is good\");\r\n        addVehicle(\"2HGBH41JATP109186\", \"Eco Ford\", \"AP15 LZ 5869\", 20000000,  \"536525485412\", \" AC condition is good\");\r\n        addVehicle(\"3HGBH41JWRN109186\", \"Maruthi Suzuki\", \"AP06 IO 1548\", 30000000,  \"585263584758\", \" AC condition is good\");\r\n    }\r\n\r\n    function addVehicle(string _chassisNumber, string _model, string _numberPlate, uint256 amount,string aadhar, string features){\r\n        ownerCount++;\r\n        owner[ownerCount]=Vehicle(_chassisNumber,_model,_numberPlate,amount,aadhar,features);\r\n    }\r\n\r\n    \r\n    \r\n}",
  "sourcePath": "H:\\dAppTutorials\\practiseDapp\\contracts\\Biography.sol",
  "compiler": {
    "name": "solc",
    "version": "0.4.24+commit.e67f0147.Emscripten.clang"
  },
  "schemaVersion": "2.0.1",
  "updatedAt": "2018-09-01T09:53:41.788Z"
}